:100000000C9472000C948F000C948F000C948F0051
:100010000C948F000C948F000C948F000C948F0024
:100020000C948F000C948F000C948F000C948F0014
:100030000C94160A0C948F000C948F000C948F0073
:100040000C949D320C948F000C948F000C948F00B4
:100050000C948F000C948F000C948F000C948F00E4
:100060000C948F000C948F000C948F000C948F00D4
:100070000C948F000C948F000C948F000C948F00C4
:100080000C948F000C948F000C948F000C948F00B4
:100090000C948F000C948F000C948F000C948F00A4
:1000A0000C948F000C948F000C948F000C948F0094
:1000B0000C948F000C948F000C948F000C948F0084
:1000C0000C948F000C948F000C948F000C948F0074
:1000D0000C948F000C948F000C948F000C948F0064
:1000E0000C948F0011241FBECFEFD1E2DEBFCDBF35
:1000F00015E0A0E0B2E0E4EBF0E802C005900D925C
:10010000AE32B107D9F715E1AEE2B5E001C01D92FC
:10011000A53CB107E1F70E94BE3E0C9458400C94F8
:100120000000EF92FF920F93DF93CF93CDB7DEB72E
:1001300060970FB6F894DEBF0FBECDBFA82F002387
:1001400009F461C07E010894E11CF11C88E0F7010C
:1001500011928A95E9F729833A834B835C836D83F7
:100160007E83AF83988780E2801BE82FFF27E7FD1F
:10017000F0954D815E816F817885181684F01D861B
:100180001E861F86188A882799278E1B9F0B04C0FE
:1001900076956795579547958A95D2F728C0202F71
:1001A000332727FD3095DB01CA01022E04C0B69526
:1001B000A795979587950A94D2F78D879E87AF87E5
:1001C000B88B04C0440F551F661F771FEA95D2F7FE
:1001D00089819A81AB81BC8104C0B695A79597951A
:1001E00087952A95D2F7482B592B6A2B7B2B498769
:1001F0005A876B877C8729853A854B855C856D8519
:100200007E85AF8598898A2F60960FB6F894DEBFF9
:100210000FBECDBFCF91DF910F91FF90EF9008956A
:10022000EF92FF920F931F937B018C0120E030E04F
:1002300040E05FE40E94BC0488238CF0C801B70151
:1002400020E030E040E05FE40E9488020E947A05EE
:100250009B01AC01205030404040504806C0C801CE
:10026000B7010E947A059B01AC01B901CA011F9137
:100270000F91FF90EF900895A0E0B0E0E2E4F1E08C
:100280000C94E03FDC012B01FA019C91923008F4C0
:1002900039C1EB018881823008F433C1943069F4AC
:1002A000843009F02FC111969C911197898198177C
:1002B00009F428C1A2E4B2E025C1843009F421C1C7
:1002C0008230A9F4923009F01DC19A01AD0188E095
:1002D000EA010990AE01E90109929E018150C1F73E
:1002E000E201898111969C918923818308C1923012
:1002F00009F407C112962D903C901397EB018A8167
:100300009B811496AD90BD90CD90DC901797EC80BA
:10031000FD800E811F819101281B390BB90137FF28
:1003200004C066277727621B730B603271050CF0DF
:1003300061C0121613066CF537014801062E04C081
:1003400096948794779467940A94D2F721E030E0EA
:1003500040E050E004C0220F331F441F551F6A9530
:10036000D2F721503040404050402E213F214023C1
:100370005123211531054105510521F021E030E0DF
:1003800040E050E079018A01E628F7280829192978
:100390003CC0232BD1F1260E371E35014601062E17
:1003A00004C096948794779467940A94D2F721E0D6
:1003B00030E040E050E004C0220F331F441F551FBF
:1003C0006A95D2F721503040404050402A213B21CD
:1003D0004C215D21211531054105510521F021E018
:1003E00030E040E050E059016A01A628B728C8284B
:1003F000D9280BC0821593052CF01C01AA24BB241C
:10040000650103C0EE24FF24870111969C91D2015F
:1004100011968C91981709F445C0992339F0A801D9
:1004200097012A193B094C095D0906C0A6019501EF
:100430002E193F09400B510B57FD08C01182338222
:10044000228224833583468357831DC081E08183C4
:100450003382228288279927DC01821B930BA40B0D
:10046000B50B84839583A683B7830DC0220F331FFA
:10047000441F551F2483358346835783828193818C
:100480000197938382832481358146815781DA01E4
:10049000C9010197A109B1098F5F9F4FAF4FBF43BA
:1004A00028F30BC0918333822282EA0CFB1C0C1DC3
:1004B0001D1DE482F5820683178383E080832481F7
:1004C00035814681578157FF1AC0C901AA2797FD78
:1004D000A095BA2F81709070A070B0705695479516
:1004E00037952795822B932BA42BB52B848395834B
:1004F000A683B78382819381019693838283DF01F0
:1005000001C0D201CD01CDB7DEB7E2E10C94FC3FD2
:10051000A0E2B0E0EEE8F2E00C94EC3F69837A836D
:100520008B839C832D833E834F835887E9E0EE2E97
:10053000F12CEC0EFD1ECE010196B7010E946B0757
:100540008E010F5E1F4FCE010596B8010E946B070A
:100550008A8991E089278A8BC701B801AE01475E7D
:100560005F4F0E943C010E949606A096E6E00C9424
:100570000840A0E2B0E0EFEBF2E00C94EC3F6983BE
:100580007A838B839C832D833E834F835887F9E046
:10059000EF2EF12CEC0EFD1ECE010196B7010E944C
:1005A0006B078E010F5E1F4FCE010596B8010E94AA
:1005B0006B07C701B801AE01475E5F4F0E943C0167
:1005C0000E949606A096E6E00C940840A0E2B0E0F7
:1005D000ECEEF2E00C94E03F69837A838B839C839A
:1005E0002D833E834F835887CE010196BE01675FFE
:1005F0007F4F0E946B07CE010596BE016F5E7F4F55
:100600000E946B079985923088F089898230C8F002
:10061000943019F4823051F404C0843029F49230BB
:1006200081F482E492E0C6C0923049F420E09A85D9
:100630008A89981321E02A87CE010996BBC08230AF
:1006400049F420E09A858A89981321E02A8BCE010B
:100650004196B0C02D843E844F8458886D887E8832
:100660008F88988CEE24FF248701AA24BB2465017F
:1006700040E050E060E070E0E0E0F0E0C101817057
:100680009070892BE9F0E60CF71C081D191D9A01E2
:10069000AB012A0D3B1D4C1D5D1D80E090E0A0E0EC
:1006A000B0E0E614F7040805190520F481E090E0B5
:1006B000A0E0B0E0BA01A901480F591F6A1F7B1FD3
:1006C000AA0CBB1CCC1CDD1C97FE08C081E090E08E
:1006D000A0E0B0E0A82AB92ACA2ADB2A3196E03283
:1006E000F10549F0660C771C881C991C56944794B8
:1006F00037942794C3CFFA85EA892B893C898B8567
:100700009C85280F391F2E5F3F4F17C0CA0181708B
:100710009070892B61F016950795F794E79480E027
:1007200090E0A0E0B0E8E82AF92A0A2B1B2B769586
:100730006795579547952F5F3F4F77FDE7CF0CC0E3
:10074000440F551F661F771F17FD4160EE0CFF1CFD
:10075000001F111F21503040403090E0590790E0B9
:10076000690790E4790760F32B8F3C8FDB01CA01A6
:100770008F779070A070B07080349105A105B1059D
:1007800061F447FD0AC0E114F1040105110529F0E7
:10079000405C5F4F6F4F7F4F40781A8EFE1711F00D
:1007A00081E08A8F4D8F5E8F6F8F78A383E0898F72
:1007B000CE0149960E949606A096E2E10C94FC3F79
:1007C000A8E1B0E0E6EEF3E00C94E83F69837A83B9
:1007D0008B839C832D833E834F835887B9E0EB2E18
:1007E000F12CEC0EFD1ECE010196B7010E946B07A5
:1007F0008E010F5E1F4FCE010596B8010E946B0758
:100800002985223008F47EC03989323010F4B801CD
:100810007CC08A859A8989278A87243011F0223002
:1008200031F4231709F06EC062E472E06EC0343018
:1008300039F41D861E861F86188A1C861B8604C0F6
:10084000323021F484E08987B7015FC02B853C8575
:100850008B899C89281B390B3C872B87ED84FE8470
:100860000F851889AD88BE88CF88D88CEA14FB0420
:100870000C051D0540F4EE0CFF1C001F111F21503C
:1008800030403C872B8720E030E040E050E080E0C3
:1008900090E0A0E0B0E460E070E0EA14FB040C0536
:1008A0001D0540F0282B392B4A2B5B2BEA18FB083F
:1008B0000C091D09B695A79597958795EE0CFF1C19
:1008C000001F111F6F5F7F4F6F31710531F7DA0124
:1008D000C9018F779070A070B07080349105A10528
:1008E000B10561F427FD0AC0E114F1040105110509
:1008F00029F0205C3F4F4F4F5F4F20782D873E8778
:100900004F87588BBE01675F7F4FCB010E949606D1
:100910006896EAE00C940440A8E1B0E0E2E9F4E073
:100920000C94EC3F69837A838B839C832D833E8375
:100930004F83588789E0E82EF12CEC0EFD1ECE0186
:100940000196B7010E946B078E010F5E1F4FCE010B
:100950000596B8010E946B078985823040F089892D
:10096000823028F0C701B8010E94E30701C08FEF71
:100970006896E6E00C940840A8E1B0E0E2ECF4E010
:100980000C94EC3F69837A838B839C832D833E8315
:100990004F83588789E0E82EF12CEC0EFD1ECE0126
:1009A0000196B7010E946B078E010F5E1F4FCE01AB
:1009B0000596B8010E946B078985823040F08989CD
:1009C000823028F0C701B8010E94E30701C08FEF11
:1009D0006896E6E00C940840A8E1B0E0E2EFF4E0AD
:1009E0000C94EC3F69837A838B839C832D833E83B5
:1009F0004F83588789E0E82EF12CEC0EFD1ECE01C6
:100A00000196B7010E946B078E010F5E1F4FCE014A
:100A10000596B8010E946B078985823040F089896C
:100A2000823028F0C701B8010E94E30701C081E0CD
:100A30006896E6E00C940840A8E0B0E0E2E2F5E059
:100A40000C94E93F9B01AC0183E08983DA01C90181
:100A50008827B7FD83959927AA27BB27B82E21158C
:100A600031054105510519F482E089833AC0882394
:100A7000A9F0203080E0380780E0480780E8580778
:100A800029F460E070E080E09FEC30C0EE24FF24A9
:100A90008701E21AF30A040B150B02C079018A01DF
:100AA0008EE1C82ED12CDC82CB82ED82FE820F83B8
:100AB0001887C801B7010E94470601971816190642
:100AC00084F4082E04C0EE0CFF1C001F111F0A94B2
:100AD000D2F7ED82FE820F831887C81AD90ADC820A
:100AE000CB82BA82CE0101960E9496062896E9E052
:100AF0000C940540ACE0B0E0E0E8F5E00C94F03F89
:100B000069837A838B839C83CE010196BE016B5FE0
:100B10007F4F0E946B078D81823061F1823050F1EE
:100B2000843021F48E81882351F12EC02F813885A5
:100B300037FD20C06E812F3131051CF06623F9F09E
:100B400023C08EE190E0821B930B29853A854B856B
:100B50005C8504C056954795379527958A95D2F7B9
:100B60006623B1F050954095309521953F4F4F4FFA
:100B70005F4F0EC020E030E040E050E009C02FEFB2
:100B80003FEF4FEF5FE704C020E030E040E050E887
:100B9000B901CA012C96E2E00C940C40A8E0B0E048
:100BA000E4EDF5E00C94E83F7B018C0161157105E3
:100BB0008105910519F482E0898360C083E089830F
:100BC0008EE1C82ED12CDC82CB82ED82FE820F8397
:100BD0001887C801B7010E944706FC013197F7FF4B
:100BE0003BC0222733272E1B3F0B57016801022EE3
:100BF00004C0D694C794B794A7940A94D2F740E05F
:100C000050E060E070E081E090E0A0E0B0E004C07F
:100C1000880F991FAA1FBB1F2A95D2F70197A10918
:100C2000B1098E219F21A023B1230097A105B10511
:100C300021F041E050E060E070E04A295B296C2936
:100C40007D294D835E836F8378878EE190E08E1BD4
:100C50009F0B9C838B8312C0309781F00E2E04C0B3
:100C6000EE0CFF1C001F111F0A94D2F7ED82FE82CA
:100C70000F831887CE1ADF0ADC82CB821A82CE015C
:100C800001960E9496062896EAE00C940440EF92A2
:100C9000FF920F931F937B018C0180E0E81680E0A8
:100CA000F80681E0080780E0180788F48FEFE8165F
:100CB000F1040105110531F028F088E090E0A0E092
:100CC000B0E017C080E090E0A0E0B0E012C080E0AB
:100CD000E81680E0F80680E0080781E0180728F0B1
:100CE00088E190E0A0E0B0E004C080E190E0A0E006
:100CF000B0E020E230E040E050E0281B390B4A0B26
:100D00005B0B04C016950795F794E7948A95D2F784
:100D1000F701E65BFD4F8081281B3109410951092C
:100D2000C9011F910F91FF90EF900895DF92EF920C
:100D3000FF920F931F93FC01E480F58006811781D9
:100D4000D1808081823048F480E090E0A0E1B0E082
:100D5000E82AF92A0A2B1B2BA5C0843009F49FC06E
:100D6000823021F4EE24FF24870105C0E114F10450
:100D70000105110519F4E0E0F0E096C0628173818D
:100D80009FEF623879070CF05BC022E83FEF261B2B
:100D9000370B2A3131052CF020E030E040E050E004
:100DA0002AC0B801A701022E04C076956795579511
:100DB00047950A94D2F781E090E0A0E0B0E004C04B
:100DC000880F991FAA1FBB1F2A95D2F70197A10967
:100DD000B1098E219F21A023B1230097A105B10560
:100DE00021F081E090E0A0E0B0E09A01AB01282B77
:100DF000392B4A2B5B2BDA01C9018F779070A070D9
:100E0000B07080349105A105B10539F427FF09C000
:100E1000205C3F4F4F4F5F4F04C0215C3F4F4F4F0F
:100E20005F4FE0E0F0E02030A0E03A07A0E04A07A2
:100E3000A0E45A0710F0E1E0F0E079018A0127C050
:100E40006038710564F5FB01E158FF4FD801C70117
:100E50008F779070A070B07080349105A105B105B6
:100E600039F4E7FE0DC080E490E0A0E0B0E004C0FB
:100E70008FE390E0A0E0B0E0E80EF91E0A1F1B1F10
:100E800017FF05C016950795F794E794319687E00C
:100E900016950795F794E7948A95D1F705C0EE2447
:100EA000FF248701EFEFF0E06E2F679566276795C7
:100EB000902F9F77D794DD24D7948E2F8695492F36
:100EC000462B582F5D29B701CA011F910F91FF9042
:100ED000EF90DF900895FC01DB0140815181228178
:100EE000622F6F7770E0221F2227221F9381892FA4
:100EF000880F822B282F30E0991F9927991F119670
:100F00009C93119721153105A9F5411551056105EE
:100F1000710511F482E037C082E89FEF13969C932D
:100F20008E9312979A01AB0167E0220F331F441F83
:100F3000551F6A95D1F783E08C930DC0220F331FA4
:100F4000441F551F12968D919C91139701971396EC
:100F50009C938E931297203080E0380780E04807FA
:100F600080E4580758F314962D933D934D935C936A
:100F7000179708952F3F310579F441155105610503
:100F8000710519F484E08C93089564FF03C081E037
:100F90008C9312C01C9210C02F57304013963C9374
:100FA0002E93129783E08C9387E0440F551F661FA2
:100FB000771F8A95D1F7706414964D935D936D9366
:100FC0007C93179708951F93DC01FB019C9192304D
:100FD00008F447C08081823008F443C0943051F453
:100FE00011961C91843099F58181682F70E0611B06
:100FF00071093FC0843021F0923031F48230B9F170
:101000008181882389F12DC011961C91119782301E
:10101000F1F081811817D9F412962D913C91139714
:10102000828193818217930794F028173907BCF0C7
:1010300014968D919D910D90BC91A02D24813581A8
:1010400046815781281739074A075B0718F411238F
:1010500041F00AC082179307A407B50740F4112393
:1010600019F061E070E005C06FEF7FEF02C060E053
:1010700070E0CB011F910895DF93CF93CDB7DEB71A
:1010800028970FB6F894DEBF0FBECDBF9C838B832D
:101090007E836D8358874F838D819E819A83898358
:1010A0008981EB81FC8180838B819C8101979C836A
:1010B0008B8389819A81892F99279A838983898152
:1010C000EB81FC8180838B819C8101979C838B8346
:1010D000EB81FC8110828B819C8101979C838B83A7
:1010E000EB81FC8180E880838B819C8101979C83CC
:1010F0008B83EB81FC8110828B819C8147979C8341
:101100008B838F8198859A8389838981EB81FC8188
:1011100080838B819C8101979C838B8389819A81B9
:10112000892F99279A8389838981EB81FC81808328
:101130008B819C8107979C838B838B819C812896D4
:101140000FB6F894DEBF0FBECDBFCF91DF910895EB
:10115000DF93CF93CDB7DEB70E94F309A09132158C
:10116000B0913315CD91CDBFDD91DEBFFF91EF91F1
:10117000DF91CF91BF91AF919F918F917F916F91AF
:101180005F914F913F912F911F910F91FF90EF90A1
:10119000DF90CF90BF90AF909F908F907F906F9097
:1011A0005F904F903F902F901F900F900FBE0F9029
:1011B000089581E0CF91DF910895DF93CF93CDB76C
:1011C000DEB7CF91DF9108950F920FB6F8940F928A
:1011D0001F9211242F923F924F925F926F927F92B3
:1011E0008F929F92AF92BF92CF92DF92EF92FF9237
:1011F0000F931F932F933F934F935F936F937F931F
:101200008F939F93AF93BF93CF93DF93EF93FF930E
:10121000A0913215B09133150DB60D920EB60D9208
:101220000E94BC20A0913215B0913315CD91CDBF55
:10123000DD91DEBFFF91EF91DF91CF91BF91AF9133
:101240009F918F917F916F915F914F913F912F91DE
:101250001F910F91FF90EF90DF90CF90BF90AF90D4
:101260009F908F907F906F905F904F903F902F90C6
:101270001F900F900FBE0F9008950F920FB6F89425
:101280000F921F9211242F923F924F925F926F9272
:101290007F928F929F92AF92BF92CF92DF92EF9206
:1012A000FF920F931F932F933F934F935F936F93EF
:1012B0007F938F939F93AF93BF93CF93DF93EF93DE
:1012C000FF93A0913215B09133150DB60D920EB665
:1012D0000D920E94BC20A0913215B0913315CD9192
:1012E000CDBFDD91DEBFFF91EF91DF91CF91BF9137
:1012F000AF919F918F917F916F915F914F913F91AE
:101300002F911F910F91FF90EF90DF90CF90BF90A2
:10131000AF909F908F907F906F905F904F903F9095
:101320002F901F900F900FBE0F9018950F920FB631
:10133000F8940F921F9211242F923F924F925F9236
:101340006F927F928F929F92AF92BF92CF92DF92D5
:10135000EF92FF920F931F932F933F934F935F93BF
:101360006F937F938F939F93AF93BF93CF93DF93AD
:10137000EF93FF93A0913215B09133150DB60D92F6
:101380000EB60D920E94D61E882311F00E94BC203A
:10139000A0913215B0913315CD91CDBFDD91DEBF57
:1013A000FF91EF91DF91CF91BF91AF919F918F917D
:1013B0007F916F915F914F913F912F911F910F916D
:1013C000FF90EF90DF90CF90BF90AF909F908F9065
:1013D0007F906F905F904F903F902F901F900F9055
:1013E0000FBE0F900895DF93CF930F92CDB7DEB766
:1013F000A89580E090E088709070009719F080EEDA
:10140000898302C090EC998380E087709981892B51
:10141000982F88E10FB6F894A895809360000FBECE
:10142000909360000F90CF91DF9108950E949609EC
:101430001895DF93CF9300D000D0CDB7DEB79C8353
:101440008B831A8219820E949A1C80913005909198
:101450003105009731F482E395E090933105809354
:1014600030058B819C81009799F180912E05909198
:101470002F052B813C81820F931F2FE08F3F920716
:1014800038F520912E0530912F058B819C81280FF6
:10149000391F80912E0590912F0582179307C0F474
:1014A000209130053091310580912E0590912F05C6
:1014B000820F931F9A83898320912E0530912F05E7
:1014C0008B819C81820F931F90932F0580932E0513
:1014D0000E94A61C89819A810F900F900F900F9007
:1014E000CF91DF910895DF93CF9300D0CDB7DEB7D2
:1014F0009A83898389819A81009711F0F894FFCFAC
:101500000F900F90CF91DF910895DF93CF93CDB7D8
:10151000DEB710922F0510922E05CF91DF9108951E
:10152000DF93CF93CDB7DEB720912E0530912F05F5
:101530008FEF9FE0821B930BCF91DF910895DF9394
:10154000CF9300D0CDB7DEB78FE090E00E94190AAC
:101550009A83898389819A81009759F0E981FA8178
:10156000108211821282138289819A8104960E94CC
:10157000CE0F89819A810F900F90CF91DF910895BE
:10158000CF92DF92EF92FF920F931F93DF93CF934F
:10159000CDB7DEB76A970FB6F894DEBF0FBECDBFEA
:1015A0009E878D874F87588B698B7A8B0B8B1C8B13
:1015B0002D8B3E8BCF8AD88EE98EFA8E8D859E85B7
:1015C0009C838B8319828B899C89AD89BE898070AD
:1015D0009070A0700097A105B10511F0F894FFCFAD
:1015E0008B899C89AD89BE890097A105B10511F44D
:1015F000F894FFCF0E949A1CEB81FC81808191813D
:10160000A281B38189879A87AB87BC878D859E85A8
:101610002F85388949895A89BA01A9010E94E50DA7
:1016200029853A854B855C858F859889A989BA89F2
:10163000282B392B4A2B5B2B8B899C89AD89BE8942
:10164000282339234A235B238B899C89AD89BE8952
:10165000281739074A075B0769F529853A854B85BD
:101660005C858F859889A989BA89822B932BA42BB5
:10167000B52B8D839E83AF83B887EB81FC8120815E
:101680003181428153818B899C89AD89BE89809546
:101690009095A095B09582239323A423B523EB8145
:1016A000FC8180839183A283B3831F8A188E198E55
:1016B0001A8E30C08F89988DA98DBA8D0097A1059B
:1016C000B105E1F08B819C81BC016C5F7F4F8B8900
:1016D0009C89AD89BE899C01AD015560EF88F88C6D
:1016E000098D1A8DCB01BA01A901980187010E94C9
:1016F00065211D821E821F8218860CC0EB81FC8131
:1017000080819181A281B3818D839E83AF83B887CD
:1017100081E089830E94A61C8A838F89988DA98D78
:10172000BA8D0097A105B10509F461C08A818823AB
:1017300011F40E94E4080E94EB25DC01CB018D83AB
:101740009E83AF83B8878D819E81AF81B88580707D
:101750009070A070B2700097A105B10509F03EC06D
:101760000FB6F8940F92EB81FC8180819181A28168
:10177000B3818D839E83AF83B8872D813E814F8156
:1017800058858B899C89AD89BE89282339234A23B2
:101790005B238B899C89AD89BE89281739074A0745
:1017A0005B07C1F4EB81FC8120813181428153814F
:1017B0008B899C89AD89BE8980959095A095B095BF
:1017C00082239323A423B523EB81FC81808391831F
:1017D000A283B3830F900FBE81E089838D819E81A8
:1017E000AF81B885B0708D839E83AF83B8878D81BC
:1017F0009E81AF81B885BC01CD016A960FB6F89481
:10180000DEBF0FBECDBFCF91DF911F910F91FF9033
:10181000EF90DF90CF900895CF92DF92EF92FF92FA
:101820000F931F93DF93CF93CDB7DEB76D970FB6AE
:10183000F894DEBF0FBECDBF9B8B8A8B4C8B5D8B2C
:101840006E8B7F8B288F098FCA8EDB8EEC8EFD8E80
:101850008A899B89998B888B188619861A861B869C
:101860001D828A899B89009711F4F894FFCF8C8997
:101870009D89AE89BF8980709070A0700097A10586
:10188000B10511F0F894FFCF8C899D89AE89BF898D
:101890000097A105B10511F4F894FFCF0E949A1C9E
:1018A000E889F98980819181A281B38189839A83B2
:1018B000AB83BC8389819A81AB81BC812C893D89B2
:1018C0004E895F89BC01CD01098D0E94810F8F83F4
:1018D0008F81882349F189819A81AB81BC818C8772
:1018E0009D87AE87BF871A8E1B8E1C8E1D8E888D9E
:1018F000882309F464C0E889F98920813181428113
:1019000053818C899D89AE89BF8980959095A095DA
:10191000B09582239323A423B523E889F989808392
:101920009183A283B3834BC08A8D9B8DAC8DBD8D7B
:101930000097A105B10559F489819A81AB81BC81D9
:101940008C879D87AE87BF8781E08D8338C0888D67
:10195000882349F088859985AA85BB85B1608887E9
:101960009987AA87BB87898D882349F088859985BF
:10197000AA85BB85B46088879987AA87BB87888931
:101980009989BC016C5F7F4F2C893D894E895F89A5
:1019900088859985AA85BB85282B392B4A2B5B2BFB
:1019A000EA8CFB8C0C8D1D8DCB01BA01A90198012D
:1019B00087010E9465211C861D861E861F860E9447
:1019C000A61C8E838A8D9B8DAC8DBD8D0097A10545
:1019D000B10509F45EC08E81882311F40E94E408E9
:1019E0000E94EB25DC01CB018C879D87AE87BF87EA
:1019F0008C859D85AE85BF8580709070A070B2701B
:101A00000097A105B10509F03BC00FB6F8940F92FD
:101A1000E889F98980819181A281B3818C879D8732
:101A2000AE87BF878C859D85AE85BF852C893D8916
:101A30004E895F89BC01CD01098D0E94810F8823E9
:101A4000D9F0888D8823C1F0E889F9892081318116
:101A5000428153818C899D89AE89BF8980959095FB
:101A6000A095B09582239323A423B523E889F9890F
:101A700080839183A283B38381E08D830F900FBE17
:101A80008C859D85AE85BF85B0708C879D87AE8720
:101A9000BF878C859D85AE85BF85BC01CD016D96C8
:101AA0000FB6F894DEBF0FBECDBFCF91DF911F916F
:101AB0000F91FF90EF90DF90CF900895DF93CF9339
:101AC000CDB7DEB72C970FB6F894DEBF0FBECDBFF3
:101AD00098878F8349875A876B877C878F81988502
:101AE0009E838D838F819885009711F4F894FFCFA2
:101AF00089859A85AB85BC8580709070A0700097B1
:101B0000A105B10511F0F894FFCF0FB6F8940F922C
:101B1000ED81FE8180819181A281B38189839A8345
:101B2000AB83BC83ED81FE81208131814281538171
:101B300089859A85AB85BC8580959095A095B09553
:101B400082239323A423B523ED81FE818083918397
:101B5000A283B3830F900FBE89819A81AB81BC8130
:101B6000BC01CD012C960FB6F894DEBF0FBECDBFE1
:101B7000CF91DF910895DF93CF93CDB7DEB729974B
:101B80000FB6F894DEBF0FBECDBF998788878885D2
:101B900099859E838D831F82ED81FE818081918155
:101BA000A281B38189839A83AB83BC8389819A8123
:101BB000AB81BC81BC01CD0129960FB6F894DEBF84
:101BC0000FBECDBFCF91DF910895DF93CF93CDB7F7
:101BD000DEB76D970FB6F894DEBF0FBECDBF998FFD
:101BE000888F4A8F5B8F6C8F7D8F1C861D861E862B
:101BF0001F86888D998D9B838A831982888D998D04
:101C0000009711F4F894FFCF8A8D9B8DAC8DBD8D1C
:101C100080709070A0700097A105B10511F0F89444
:101C2000FFCF8A819B810496998B888B88899989BB
:101C300003969B8B8A8B0E949A1CE889F98987817D
:101C400090859F8B8E8BEA81FB812081318142813F
:101C500053818A8D9B8DAC8DBD8D822B932BA42BB4
:101C6000B52BEA81FB8180839183A283B38391C0EA
:101C7000EE89FF89848195819D8B8C8BEE89FF890C
:101C800080819181A281B38188879987AA87BB8748
:101C9000198288859985AA85BB8580709070A0700F
:101CA0008C839D83AE83BF8388859985AA85BB85F8
:101CB000B07088879987AA87BB878C819D81AE8108
:101CC000BF8180709070A070B4700097A105B105BD
:101CD000A9F4EA81FB812081318142815381888589
:101CE0009985AA85BB8582239323A423B5230097D6
:101CF000A105B105E1F081E0898319C0EA81FB818A
:101D0000208131814281538188859985AA85BB854F
:101D1000282339234A235B2388859985AA85BB8597
:101D2000281739074A075B0711F481E08983898105
:101D3000882359F18C819D81AE81BF818070907024
:101D4000A070B1700097A105B10581F08C859D85CB
:101D5000AE85BF85288539854A855B85822B932B87
:101D6000A42BB52B8C879D87AE87BF87EA81FB812B
:101D700080819181A281B3819C01AD0152608E89E5
:101D80009F89BA01A9010E9439238C899D899F8B63
:101D90008E8B2E893F898A899B892817390709F0FC
:101DA00067CFEA81FB8120813181428153818C851B
:101DB0009D85AE85BF8580959095A095B095822331
:101DC0009323A423B523EA81FB8180839183A2839B
:101DD000B3830E94A61CEA81FB8180819181A2814C
:101DE000B381BC01CD016D960FB6F894DEBF0FBE76
:101DF000CDBFCF91DF910895DF93CF9300D000D076
:101E000000D0CDB7DEB79E838D838D819E819C836C
:101E10008B838B819C81009711F4F894FFCF8B8189
:101E20009C8104969A8389830E949A1C16C0E9813A
:101E3000FA812781308589819A810396281739078D
:101E400011F4F894FFCFE981FA818781908540E011
:101E500050E060E072E00E943923E981FA818081DC
:101E6000882329F70E94A61C8B819C810E94730AFB
:101E700026960FB6F894DEBF0FBECDBFCF91DF918F
:101E80000895DF93CF9300D000D000D0CDB7DEB758
:101E90009A8389834B835C836D837E8389819A8156
:101EA0002B813C814D815E81BA01A9010E94E50D23
:101EB00026960FB6F894DEBF0FBECDBFCF91DF914F
:101EC0000895DF93CF9300D000D000D0CDB7DEB718
:101ED0009A8389834B835C836D837E8389819A8116
:101EE0002B813C814D815E81BA01A9010E945E0D6A
:101EF00026960FB6F894DEBF0FBECDBFCF91DF910F
:101F000008950F93DF93CF93CDB7DEB72A970FB61F
:101F1000F894DEBF0FBECDBF6A837B838C839D8325
:101F20002E833F83488759870A8719828A858823A9
:101F300099F48A819B81AC81BD812E813F81488546
:101F4000598582239323A423B5230097A105B105C6
:101F5000D1F081E0898317C02A813B814C815D816A
:101F60008E819F81A885B985282339234A235B2345
:101F70008E819F81A885B985281739074A075B0795
:101F800011F481E0898389812A960FB6F894DEBF27
:101F90000FBECDBFCF91DF910F910895DF93CF9307
:101FA00000D0CDB7DEB79A83898389819A81039661
:101FB000E981FA8192838183E981FA818FEF9FEF32
:101FC000AFEFBFEF83839483A583B68389819A8122
:101FD0000396E981FA819087878389819A810396A4
:101FE000E981FA8192878187E981FA8110820F90D5
:101FF0000F90CF91DF910895DF93CF9300D0CDB7AD
:10200000DEB79A838983E981FA81138612860F905D
:102010000F90CF91DF910895DF93CF9300D000D040
:1020200000D0CDB7DEB79C838B837E836D83EB813D
:10203000FC81818192819A838983ED81FE818981EE
:102040009A8195838483E981FA8186819781ED81E4
:10205000FE8197838683E981FA810680F781E02DEE
:102060008D819E8195838483E981FA818D819E8112
:1020700097838683ED81FE818B819C819387828704
:10208000EB81FC8180818F5FEB81FC8180832696D0
:102090000FB6F894DEBF0FBECDBFCF91DF9108958C
:1020A000DF93CF93CDB7DEB72A970FB6F894DEBF94
:1020B0000FBECDBF98878F837A876987E985FA85B8
:1020C00080819181A281B38189839A83AB83BC8310
:1020D00089819A81AB81BC818F3F2FEF92072FEFCF
:1020E000A2072FEFB20739F4EF81F8858185928539
:1020F0009E838D831EC08F81988503969E838D83DA
:1021000006C0ED81FE81848195819E838D83ED8162
:10211000FE810480F581E02D20813181428153814F
:1021200089819A81AB81BC8182179307A407B50787
:1021300040F7ED81FE8184819581E985FA8595835B
:102140008483E985FA850480F581E02D89859A8567
:1021500097838683E985FA858D819E81978386831F
:10216000ED81FE8189859A8595838483E985FA8549
:102170008F81988593878287EF81F88580818F5F33
:10218000EF81F88580832A960FB6F894DEBF0FBEE4
:10219000CDBFCF91DF910895DF93CF9300D000D0D2
:1021A000CDB7DEB79C838B83EB81FC8182859385E1
:1021B0009A838983EB81FC81A481B581EB81FC81C9
:1021C0008681978117969C938E931697EB81FC815D
:1021D000A681B781EB81FC818481958115969C93C2
:1021E0008E931497E981FA81218132818B819C81C0
:1021F0002817390741F4EB81FC8186819781E981B9
:10220000FA8192838183EB81FC8113861286E981B6
:10221000FA8180818150E981FA818083E981FA81A4
:1022200080810F900F900F900F90CF91DF910895C4
:10223000DF93CF9300D000D000D0CDB7DEB79D8321
:102240008C836E8381E08B838C819D819A838983CB
:1022500089819A81009711F4F894FFCF89819A813E
:10226000009709F48BC0E981FA81878D882309F4EE
:1022700085C0E981FA81878D282F30E08FEF9FE7B5
:10228000B9010E94AA3FCB019C01E981FA8180A19A
:10229000882F90E02817390708F470C00FB6F8941B
:1022A0000F92E981FA8140815181E981FA81878D1C
:1022B000282F30E0E981FA8180A1882F90E0BC01CD
:1022C000269FC001279F900D369F900D1124840FEB
:1022D000951FE981FA8195838483E981FA81168EBD
:1022E000E981FA8180819181E981FA8193838283F6
:1022F000E981FA8140815181E981FA81878D882FB6
:1023000090E09C0121503040E981FA8180A1882F22
:1023100090E0BC01269FC001279F900D369F900D35
:102320001124840F951FE981FA8197838683E981BF
:10233000FA818FEF81A3E981FA818FEF82A38E81E9
:10234000882379F4E981FA8180858823A1F0898145
:102350009A8108960E94E621882369F00E94E40889
:102360000AC089819A8108960E94CE0F89819A813C
:1023700043960E94CE0F0F900FBE01C01B828B812F
:10238000882311F4F894FFCF8B8126960FB6F8942A
:10239000DEBF0FBECDBFCF91DF9108950F931F9386
:1023A000DF93CF93CDB7DEB729970FB6F894DEBF92
:1023B0000FBECDBF8F83688749871E821D828F81A4
:1023C000882309F453C08F81282F30E08FEF9FE7D7
:1023D000B9010E94AA3FCB019C018885882F90E01B
:1023E0002817390708F442C08F81282F30E08885EC
:1023F000882F90E0AC01249FC001259F900D349F51
:10240000900D11245FE78D3D950780F58F81282F72
:1024100030E08885882F90E0AC01249FC001259F83
:10242000900D349F900D11249C838B838B819C8114
:1024300083960E94190A9E838D838D819E810097C9
:10244000D9F08D819E819A83898389819A8183962F
:102450009A83898329813A81ED81FE818F81688504
:10246000A90129858F010E94491206C08D819E8194
:10247000009711F4F894FFCF8D819E8129960FB6B5
:10248000F894DEBF0FBECDBFCF91DF911F910F91AA
:1024900008950F931F93DF93CF93CDB7DEB72797A0
:1024A0000FB6F894DEBF0FBECDBF89836A835C830D
:1024B0004B832D831F830E838A81882339F48E8179
:1024C0009F81EE81FF819183808306C08B819C81F7
:1024D000EE81FF8191838083EE81FF818981878FE7
:1024E000EE81FF818A8180A38E819F8161E00E94BD
:1024F000181127960FB6F894DEBF0FBECDBFCF914F
:10250000DF911F910F9108950F93DF93CF93CDB774
:10251000DEB767970FB6F894DEBF0FBECDBF9B87BF
:102520008A877D876C872E873F87488B598B0A8BDC
:102530001C828A859B859A83898389819A810097E9
:1025400011F4F894FFCF8C859D85009729F4E981DB
:10255000FA8180A1882329F481E090E09F8B8E8B03
:1025600002C01F8A1E8A8E899F89009711F4F894F1
:10257000FFCF8A89823029F4E981FA81878D813001
:1025800029F481E090E09D8B8C8B02C01D8A1C8A0F
:102590008C899D89009711F4F894FFCF0FB6F894B9
:1025A0000F92E981FA81968DE981FA81878D9817DA
:1025B00018F08A89823011F589819A812C853D85B0
:1025C000B9014A890E9448188B83E981FA8183897D
:1025D000882351F089819A8143960E94E6218823BD
:1025E00041F00E94E40805C08B81882311F00E940D
:1025F000E4080F900FBE91E09B8B63C08E859F8592
:10260000A889B9890097A105B10521F40F900FBEE3
:102610001B8A57C08C81882331F4CE0105960E9415
:102620008C2481E08C830F900FBE0E949A1C0FB601
:10263000F8940F92E981FA8181A18F3F19F4E98121
:10264000FA8111A2E981FA8182A18F3F19F4E9810F
:10265000FA8112A20F900FBECE0105969E01225F55
:102660003F4FB9010E94AB24882321F589819A81CB
:102670000E94CA198823B9F089819A8108962E850B
:102680003F8548895989BA01A9010E94342189816D
:102690009A810E9435190E94A61C882309F07ECFDA
:1026A0000E94E4087BCF89819A810E9435190E949B
:1026B000A61C74CF89819A810E9435190E94A61C9C
:1026C0001B8A8B8967960FB6F894DEBF0FBECDBF0D
:1026D000CF91DF910F910895DF93CF93CDB7DEB700
:1026E00062970FB6F894DEBF0FBECDBF998788877B
:1026F0007B876A875D874C872E87888599859D8330
:102700008C838C819D81009711F4F894FFCF8A858A
:102710009B85009729F4EC81FD8180A1882329F411
:1027200081E090E09A8B898B02C01A8A198A898984
:102730009A89009711F4F894FFCF8E85823029F49E
:10274000EC81FD81878D813029F481E090E0988BC8
:102750008F8702C0188A1F868F859889009711F489
:10276000F894FFCF1E82EC81FD81968DEC81FD8176
:10277000878D981718F08E858230E1F5EC81FD8108
:1027800082A18B83EC81FD81868D8A838C819D81E2
:102790002A853B85B9014E850E9448188B818F3F61
:1027A000A9F4EC81FD818389882309F18C819D81C5
:1027B00043960E94E6218823D1F08C859D85009761
:1027C000B1F0EC85FD8581E0808311C00E94631E1D
:1027D00089839B818981981750F48B818F3711F4FD
:1027E000F894FFCF8B818F5FEC81FD8182A381E024
:1027F0008F8301C01F828F8162960FB6F894DEBF6F
:102800000FBECDBFCF91DF910895DF93CF93CDB7AA
:10281000DEB72D970FB6F894DEBF0FBECDBF9987F8
:1028200088877B876A87888599859D838C838C813F
:102830009D81009711F4F894FFCFEC81FD8180A178
:10284000882311F0F894FFCFEC81FD818081918184
:10285000009731F4EC81FD8184819581009729F402
:1028600081E090E09D878C8702C01D861C868C8548
:102870009D85009711F4F894FFCF1E82EC81FD81B5
:10288000868D8B83EC81FD81978D8B818917A8F5CF
:10289000EC81FD8182A18A838B818F5FEC81FD8138
:1028A000868F8A818F3FA9F4EC81FD8183898823FB
:1028B00009F18C819D8143960E94E6218823D1F005
:1028C0008A859B850097B1F0EA85FB8581E080834E
:1028D00011C00E94631E89839A818981981750F4E0
:1028E0008A818F3711F4F894FFCF8A818F5FEC8152
:1028F000FD8182A381E08F8301C01F828F812D968D
:102900000FB6F894DEBF0FBECDBFCF91DF91089513
:10291000DF93CF93CDB7DEB764970FB6F894DEBFE1
:102920000FBECDBF9B878A877D876C872E873F87A9
:10293000488B598B1C828A859B859B838A838A81DD
:102940009B81009711F4F894FFCF8C859D850097AB
:1029500029F4EA81FB8180A1882329F481E090E0B9
:102960009C8B8B8B02C01C8A1B8A8B899C8900974D
:1029700011F4F894FFCF0FB6F8940F92EA81FB811F
:10298000868D898389818823F9F08A819B812C85B2
:102990003D85B9010E94EE1889818150EA81FB8151
:1029A000868FEA81FB818085882349F08A819B811B
:1029B00008960E94E621882311F00E94E4080F90F7
:1029C0000FBE91E09A8B6AC08E859F85A889B989D0
:1029D0000097A105B10521F40F900FBE1A8A5EC0C1
:1029E0008C81882331F4CE0105960E948C2481E0ED
:1029F0008C830F900FBE0E949A1C0FB6F8940F9212
:102A0000EA81FB8181A18F3F19F4EA81FB8111A248
:102A1000EA81FB8182A18F3F19F4EA81FB8112A236
:102A20000F900FBECE0105969E01225F3F4FB90168
:102A30000E94AB24882321F58A819B810E948819FA
:102A40008823B9F08A819B8143962E853F854889EA
:102A50005989BA01A9010E9434218A819B810E946F
:102A600035190E94A61C882309F085CF0E94E4082E
:102A700082CF8A819B810E9435190E94A61C7BCF40
:102A80008A819B810E9435190E94A61C8A819B81A4
:102A90000E948819882309F46ECF1A8A8A8964965D
:102AA0000FB6F894DEBF0FBECDBFCF91DF91089572
:102AB000DF93CF93CDB7DEB760970FB6F894DEBF44
:102AC0000FBECDBF9B878A874C875D876E877F87C8
:102AD0001C828A859B859B838A838A819B81009740
:102AE00011F4F894FFCFEA81FB8180A1882311F0D3
:102AF000F894FFCF0FB6F8940F92EA81FB81868D90
:102B0000898389818823C1F089818150EA81FB8191
:102B1000868FEA81FB818085882349F08A819B81A9
:102B200008960E94E621882311F00E94E4080F9085
:102B30000FBE81E0888B6AC08C859D85AE85BF8580
:102B40000097A105B10521F40F900FBE188A5EC051
:102B50008C81882331F4CE0105960E948C2481E07B
:102B60008C830F900FBE0E949A1C0FB6F8940F92A0
:102B7000EA81FB8181A18F3F19F4EA81FB8111A2D7
:102B8000EA81FB8182A18F3F19F4EA81FB8112A2C5
:102B90000F900FBECE0105969E01245F3F4FB901F5
:102BA0000E94AB24882321F58A819B810E94881989
:102BB0008823B9F08A819B8143962C853D854E857B
:102BC0005F85BA01A9010E9434218A819B810E94FC
:102BD00035190E94A61C882309F08CCF0E94E408B6
:102BE00089CF8A819B810E9435190E94A61C82CFC1
:102BF0008A819B810E9435190E94A61C8A819B8133
:102C00000E948819882309F475CF188A88896096EC
:102C10000FB6F894DEBF0FBECDBFCF91DF91089500
:102C2000DF93CF93CDB7DEB766970FB6F894DEBFCC
:102C30000FBECDBF9D878C877F876E87288B398B92
:102C40004A8B5B8B1E828C859D859B838A838A81C0
:102C50009B81009711F4F894FFCF8E859F85009794
:102C600029F4EA81FB8180A1882329F481E090E0A6
:102C70009E8B8D8B02C01E8A1D8A8D899E8900972E
:102C800011F4F894FFCF0FB6F8940F92EA81FB810C
:102C9000868D89838981882331F1EA81FB81868150
:102CA00097819D838C838A819B812E853F85B90185
:102CB0000E94EE18EA81FB818C819D819783868337
:102CC000EA81FB818389882349F08A819B8143962D
:102CD0000E94E621882311F00E94E4080F900FBEA5
:102CE00091E09C8B6AC088899989AA89BB890097E1
:102CF000A105B10521F40F900FBE1C8A5EC08E8124
:102D0000882331F4CE0107960E948C2481E08E83C3
:102D10000F900FBE0E949A1C0FB6F8940F92EA8192
:102D2000FB8181A18F3F19F4EA81FB8111A2EA8125
:102D3000FB8182A18F3F19F4EA81FB8112A20F90DF
:102D40000FBECE0107969E01205F3F4FB9010E9442
:102D5000AB24882321F58A819B810E9488198823CE
:102D6000B9F08A819B814396288939894A895B8990
:102D7000BA01A9010E9434218A819B810E943519E0
:102D80000E94A61C882309F07ECF0E94E4087BCF16
:102D90008A819B810E9435190E94A61C74CF8A816A
:102DA0009B810E9435190E94A61C8A819B810E94EA
:102DB0008819882309F467CF1C8A8C8966960FB618
:102DC000F894DEBF0FBECDBFCF91DF910895DF93A2
:102DD000CF93CDB7DEB72F970FB6F894DEBF0FBEF7
:102DE000CDBF998788877B876A875D874C87888571
:102DF00099859D838C838C819D81009711F4F89433
:102E0000FFCF8A859B85009729F4EC81FD8180A105
:102E1000882329F481E090E09F878E8702C01F8677
:102E20001E868E859F85009711F4F894FFCF1E8231
:102E3000EC81FD81868D8B838B818823E1F1EC8190
:102E4000FD8181A18A838C819D812A853B85B90181
:102E50000E94EE188B818150EC81FD81868F8A81E2
:102E60008F3FA9F4EC81FD818085882309F18C8155
:102E70009D8108960E94E6218823D1F08C859D854E
:102E80000097B1F0EC85FD8581E0808311C00E9440
:102E9000631E89839A818981981750F48A818F37BC
:102EA00011F4F894FFCF8A818F5FEC81FD8181A3BB
:102EB00081E08F8301C01F828F812F960FB6F89417
:102EC000DEBF0FBECDBFCF91DF910895DF93CF93CB
:102ED000CDB7DEB72C970FB6F894DEBF0FBECDBFCF
:102EE00098878F837A8769878F8198859A8389836A
:102EF00089819A81009711F4F894FFCF89859A858A
:102F0000009729F4E981FA8180A1882329F481E0DE
:102F100090E09C878B8702C01C861B868B859C85D6
:102F2000009711F4F894FFCFE981FA8180A18823FA
:102F300011F4F894FFCF1D82E981FA81868D8823F0
:102F4000B1F0E981FA81868197819C838B838981A5
:102F50009A8129853A85B9010E94EE18E981FA81A2
:102F60008B819C819783868381E08E8301C01E8242
:102F70008E812C960FB6F894DEBF0FBECDBFCF91D9
:102F8000DF910895DF93CF9300D00F92CDB7DEB7D6
:102F90009B838A838A819B81009711F4F894FFCFE9
:102FA0000FB6F8940F92EA81FB81868D89830F908A
:102FB0000FBE89810F900F900F90CF91DF910895F0
:102FC000DF93CF9300D000D00F92CDB7DEB79D83B3
:102FD0008C838C819D819A83898389819A810097D2
:102FE00011F4F894FFCF0FB6F8940F92E981FA81AB
:102FF000978DE981FA81868D292F281B822F8B835B
:103000000F900FBE8B810F900F900F900F900F902D
:10301000CF91DF910895DF93CF9300D000D00F922E
:10302000CDB7DEB79D838C838C819D819A83898304
:1030300089819A81009711F4F894FFCFE981FA8190
:10304000868D8B838B810F900F900F900F900F9038
:10305000CF91DF910895DF93CF9300D000D0CDB70B
:10306000DEB79C838B838B819C819A838983898142
:103070009A81009711F4F894FFCF89819A810E9478
:10308000730A0F900F900F900F90CF91DF910895DA
:10309000DF93CF93CDB7DEB727970FB6F894DEBF97
:1030A0000FBECDBF9C838B837E836D834F831A823B
:1030B000EB81FC81868D8983EB81FC8180A1882353
:1030C00009F47DC08F81882399F5EB81FC816281B1
:1030D0007381EB81FC8180A1482F50E02D813E81DE
:1030E000CB01B9010E941740EB81FC812281338121
:1030F000EB81FC8180A1882F90E0820F931FEB81F0
:10310000FC8193838283EB81FC8122813381EB817B
:10311000FC81848195812817390708F450C0EB8120
:10312000FC8180819181EB81FC819383828347C004
:10313000EB81FC8166817781EB81FC8180A1482F46
:1031400050E02D813E81CB01B9010E941740EB81F7
:10315000FC8126813781EB81FC8180A1882F90E062
:10316000909581959F4F820F931FEB81FC819783F0
:103170008683EB81FC8126813781EB81FC81808114
:1031800091812817390790F4EB81FC8124813581E6
:10319000EB81FC8180A1882F90E0909581959F4FD5
:1031A000820F931FEB81FC81978386838F8182300E
:1031B00031F48981882319F089818150898389813B
:1031C0008F5FEB81FC81868F8A8127960FB6F894FA
:1031D000DEBF0FBECDBFCF91DF910895DF93CF93B8
:1031E00000D000D0CDB7DEB79A8389837C836B8310
:1031F000E981FA8180A1882389F1E981FA81268118
:103200003781E981FA8180A1882F90E0820F931F96
:10321000E981FA8197838683E981FA812681378162
:10322000E981FA81848195812817390740F0E98185
:10323000FA8180819181E981FA8197838683E9818E
:10324000FA8146815781E981FA8180A1282F30E0F7
:103250008B819C81BA01A9010E9417400F900F90A9
:103260000F900F90CF91DF910895DF93CF9300D00F
:1032700000D0CDB7DEB79C838B830FB6F8940F9246
:10328000EB81FC8182A18A8311C0EB81FC8183895F
:10329000882379F08B819C8143960E94E6218823C4
:1032A00011F00E944E258A8181508A838A811816E6
:1032B00064F3EB81FC818FEF82A30F900FBE0FB6FA
:1032C000F8940F92EB81FC8181A1898311C0EB817D
:1032D000FC818085882379F08B819C8108960E94EF
:1032E000E621882311F00E944E258981815089832F
:1032F0008981181664F3EB81FC818FEF81A30F9015
:103300000FBE0F900F900F900F90CF91DF91089507
:10331000DF93CF9300D00F92CDB7DEB79B838A8324
:103320000FB6F8940F92EA81FB81868D882319F4F9
:1033300081E0898301C019820F900FBE89810F90AF
:103340000F900F90CF91DF910895DF93CF9300D02E
:1033500000D00F92CDB7DEB79D838C838C819D8189
:103360009A83898389819A81009711F4F894FFCF19
:10337000E981FA81868D882319F481E08B8301C06D
:103380001B828B810F900F900F900F900F90CF9119
:10339000DF910895DF93CF9300D00F92CDB7DEB7C2
:1033A0009B838A830FB6F8940F92EA81FB81968DF6
:1033B000EA81FB81878D981719F481E0898301C028
:1033C00019820F900FBE89810F900F900F90CF91AF
:1033D000DF910895DF93CF9300D000D00F92CDB747
:1033E000DEB79D838C838C819D819A8389838981BB
:1033F0009A81009711F4F894FFCFE981FA81968DB4
:10340000E981FA81878D981719F481E08B8301C0D7
:103410001B828B810F900F900F900F900F90CF9188
:10342000DF9108958F929F92AF92BF92CF92DF92D9
:10343000EF92FF920F931F93DF93CF93CDB7DEB739
:1034400060970FB6F894DEBF0FBECDBF9F838E830B
:10345000798768875B874A873D872C870E87F88A3C
:10346000EF868A859B850E94190A9A8389838981C0
:103470009A810097F1F082E390E00E94190A9D83FF
:103480008C838C819D81009779F08C819D8160E097
:1034900070E042E350E00E942040EC81FD81898190
:1034A0009A81948F838F07C089819A810E94730AC1
:1034B00002C01D821C828C819D810097E9F08A8563
:1034C0009B859C0140E050E08E819F8168857985D5
:1034D000EC85FD85AF85B889AC80BD808F01EE8419
:1034E0006D01882499240E94921A8C819D810E94EA
:1034F0004E1B81E08B8302C08FEF8B838B816096A4
:103500000FB6F894DEBF0FBECDBFCF91DF911F91F4
:103510000F91FF90EF90DF90CF90BF90AF909F9072
:103520008F9008958F929F92AF92BF92CF92DF9229
:10353000EF920F931F93DF93CF93CDB7DEB76497CE
:103540000FB6F894DEBF0FBECDBF9D838C837F8303
:103550006E83288739874A875B871D870C87EE86AD
:10356000D88ACF86BA8AA98A9C8A8B8AE989FA89FD
:10357000238D348D888599850197820F931F9B83B6
:103580008A838E819F81009749F1198221C08981A8
:10359000482F50E08981282F30E08E819F81FC01E7
:1035A000E20FF31F208189899A89840F951FFC01FE
:1035B0007D9620838981282F30E08E819F81FC01B8
:1035C000E20FF31F8081882331F089818F5F898327
:1035D00089818031E0F2E989FA8914A68E858530E7
:1035E00010F0F894FFCF8E85853010F084E08E8740
:1035F000E989FA898E85828F89899A8902960E9443
:10360000FC0F89899A890E960E94FC0FE989FA8934
:1036100089899A89938782878E85282F30E040E0B8
:1036200050E085E090E0A0E0B0E0821B930BA40B9B
:10363000B50BE989FA8986879787A08BB18BE989D1
:10364000FA8989899A89978B868B8A819B812C81BB
:103650003D814C855D85B9010E943C08E989FA8964
:10366000918380838F859889009731F0EF85F88961
:1036700089899A899183808364960FB6F894DEBF16
:103680000FBECDBFCF91DF911F910F91EF90DF90D3
:10369000CF90BF90AF909F908F900895DF93CF937E
:1036A00000D000D0CDB7DEB79C838B830FB6F894E3
:1036B0000F92809134158F5F80933415809132156D
:1036C00090913315009769F48B819C819093331509
:1036D00080933215809134158130B9F40E946825A9
:1036E00014C080913A15882381F4E0913215F0914D
:1036F0003315928DEB81FC81828D891730F08B819F
:103700009C819093331580933215809141158F5F82
:1037100080934115EB81FC81928D80913915891739
:1037200028F4EB81FC81828D80933915EB81FC813B
:10373000828D482F50E0CA01880F991F9C01220FEB
:10374000331F220F331F820F931F840F951FFC011D
:10375000E75BFA4E818192819A838983EB81FC81B8
:1037600089819A8197838683E981FA81868197810D
:10377000EB81FC8191878087E981FA810680F7815E
:10378000E02D8B819C810296958384838B819C8123
:103790000296E981FA8197838683EB81FC81828D91
:1037A000482F50E0CA01880F991F9C01220F331F38
:1037B000220F331F820F931F840F951F875B9A4E32
:1037C000EB81FC8195878487EB81FC81828D482F7A
:1037D00050E0CA01880F991F9C01220F331F220F4E
:1037E000331F820F931F840F951FFC01E75BFA4E76
:1037F00080818F5F80830F900FBE80913A15882360
:1038000061F0E0913215F0913315928DEB81FC81DE
:10381000828D981710F40E94E4080F900F900F907B
:103820000F90CF91DF910895DF93CF9300D000D018
:103830000F92CDB7DEB76A837B838C839D83198219
:103840008A819B81AC81BD810097A105B105A1F062
:1038500080914815882311F0F894FFCF0E949A1C9C
:103860008A819B81AC81BD81BC01CD0140E00E9479
:103870004C2E0E94A61C89838981882311F40E9402
:10388000E4080F900F900F900F900F90CF91DF9161
:103890000895EF92FF920F93DF93CF9300D0CDB7AF
:1038A000DEB788E595E220E032E0E6E4F5E1B90133
:1038B00040E850E020E030E000E07F010E94121A72
:1038C000898389818130D9F4F8948FEF9FEFAFEF2E
:1038D000BFEF8093421590934315A0934415B09386
:1038E000451581E080933A151092351510923615E2
:1038F00010923715109238150E94A80805C08981CA
:103900008F3F11F4F894FFCF80914A030F900F90EE
:10391000CF91DF910F91FF90EF900895DF93CF93B8
:10392000CDB7DEB7F89410923A150E94DD08CF911A
:10393000DF910895DF93CF93CDB7DEB7809148151F
:103940008F5F80934815CF91DF910895DF93CF93D8
:10395000CDB7DEB72D970FB6F894DEBF0FBECDBF43
:103960001D861C861B8680914815882311F4F894C7
:10397000FFCF0FB6F8940F92809148158150809335
:10398000481580914815882309F04BC18091341562
:10399000882309F446C1FCC0E091A115F091A2155D
:1039A000808591859D878C87EC85FD85808D918DA7
:1039B0009A878987EC85FD85A289B389EC85FD8589
:1039C0008489958917969C938E931697EC85FD852F
:1039D000A489B589EC85FD858289938915969C9388
:1039E0008E931497E985FA85218132818C859D8596
:1039F0000E962817390741F4EC85FD858489958951
:103A0000E985FA8592838183EC85FD85118E108E80
:103A1000E985FA8580818150E985FA858083EC8586
:103A2000FD858485958598878F83EC85FD85A681A6
:103A3000B781EC85FD858085918517969C938E9343
:103A40001697EC85FD85A085B185EC85FD85868181
:103A5000978115969C938E931497EF81F885218119
:103A600032818C859D8502962817390741F4EC85B3
:103A7000FD8580859185EF81F88592838183EC8532
:103A8000FD8515861486EF81F88580818150EF8150
:103A9000F8858083EC85FD85928D80913915891795
:103AA00028F4EC85FD85828D80933915EC85FD85A4
:103AB000828D482F50E0CA01880F991F9C01220F68
:103AC000331F220F331F820F931F840F951FFC019A
:103AD000E75BFA4E818192819E838D83EC85FD8523
:103AE0008D819E8197838683ED81FE81868197817A
:103AF000EC85FD8591878087ED81FE810680F781C9
:103B0000E02D8C859D850296958384838C859D858B
:103B10000296ED81FE8197838683EC85FD85828DFB
:103B2000482F50E0CA01880F991F9C01220F331FB4
:103B3000220F331F820F931F840F951F875B9A4EAE
:103B4000EC85FD8595878487EC85FD85828D482FE2
:103B500050E0CA01880F991F9C01220F331F220FCA
:103B6000331F820F931F840F951FFC01E75BFA4EF2
:103B700080818F5F8083EC85FD85928DE091321589
:103B8000F0913315828D981718F081E080933F15DE
:103B900080919A15882309F0FFCE8C859D8500972A
:103BA00011F00E94AB2580913B1590913C15A0919E
:103BB0003D15B0913E1589839A83AB83BC8389817F
:103BC0009A81AB81BC810097A105B10511F10E94DA
:103BD000D61E882319F081E080933F1589819A8150
:103BE000AB81BC810197A109B10989839A83AB8319
:103BF000BC8389819A81AB81BC810097A105B10505
:103C000031F710923B1510923C1510923D15109211
:103C10003E1580913F15882321F081E08B870E941B
:103C2000E4080F900FBE8B852D960FB6F894DEBF7B
:103C30000FBECDBFCF91DF910895DF93CF9300D01A
:103C400000D0CDB7DEB70FB6F8940F92809135153E
:103C500090913615A0913715B091381589839A83C4
:103C6000AB83BC830F900FBE89819A81AB81BC81ED
:103C7000BC01CD010F900F900F900F90CF91DF916D
:103C80000895DF93CF9300D000D00F92CDB7DEB769
:103C900019828091351590913615A0913715B09104
:103CA00038158A839B83AC83BD838A819B81AC81D9
:103CB000BD81BC01CD010F900F900F900F900F9020
:103CC000CF91DF910895DF93CF93CDB7DEB7809189
:103CD0003415CF91DF910895DF93CF9300D000D0BA
:103CE00000D0CDB7DEB79C838B838B819C810097FE
:103CF00039F480913215909133159E838D8304C0E1
:103D00008B819C819E838D838D819E819A83898303
:103D100089819A81009711F4F894FFCF89819A8163
:103D20004D9626960FB6F894DEBF0FBECDBFCF914D
:103D3000DF910895DF93CF9300D000D00F92CDB7DD
:103D4000DEB76A837B838C839D83809148158823AB
:103D500011F0F894FFCF0E949A1C0FB6F8940F92BE
:103D600020913B1530913C1540913D1550913E15E9
:103D70008A819B81AC81BD81820F931FA41FB51FD7
:103D800080933B1590933C15A0933D15B0933E1541
:103D90000F900FBE0E94A61C898389810F900F90FF
:103DA0000F900F900F90CF91DF910895DF93CF93F5
:103DB000CDB7DEB763970FB6F894DEBF0FBECDBFA9
:103DC0001D8680914815882309F0B9C18091351569
:103DD00090913615A0913715B09138150196A11D17
:103DE000B11D89879A87AB87BC8789859A85AB8502
:103DF000BC858093351590933615A0933715B093F5
:103E0000381589859A85AB85BC850097A105B105D4
:103E100021F5E0919615F09197158081882311F096
:103E2000F894FFCF809196159091971598878F837E
:103E30008091981590919915909397158093961568
:103E40008F8198859093991580939815809140154E
:103E50008F5F809340150E94AB25209142153091D1
:103E60004315409144155091451589859A85AB8538
:103E7000BC8582179307A407B50708F43EC1E091FB
:103E80009615F09197158081882369F48FEF9FEF45
:103E9000AFEFBFEF8093421590934315A093441565
:103EA000B09345152AC1E0919615F09197150780BA
:103EB000F085E02D808591859B8B8A8BEA89FB8933
:103EC00082819381A481B5818E879F87A88BB98BCE
:103ED00029853A854B855C858E859F85A889B9891A
:103EE000281739074A075B0768F48E859F85A889DC
:103EF000B9898093421590934315A0934415B093CC
:103F00004515FBC0EA89FB89848595859E838D8351
:103F1000EA89FB89A681B781EA89FB898085918539
:103F200017969C938E931697EA89FB89A085B18595
:103F3000EA89FB898681978115969C938E931497C5
:103F4000ED81FE81218132818A899B890296281721
:103F5000390741F4EA89FB8980859185ED81FE81ED
:103F600092838183EA89FB8915861486ED81FE811F
:103F700080818150ED81FE818083EA89FB89808D7B
:103F8000918D0097D9F1EA89FB89808D918D9C8371
:103F90008B83EA89FB89A289B389EA89FB898489B1
:103FA000958917969C938E931697EA89FB89A48925
:103FB000B589EA89FB898289938915969C938E93AA
:103FC0001497EB81FC81218132818A899B890E962D
:103FD0002817390741F4EA89FB8984899589EB819F
:103FE000FC8192838183EA89FB89118E108EEB819B
:103FF000FC8180818150EB81FC818083EA89FB898F
:10400000928D80913915891728F4EA89FB89828D70
:1040100080933915EA89FB89828D482F50E0CA01C7
:10402000880F991F9C01220F331F220F331F820F0D
:10403000931F840F951FFC01E75BFA4E81819281EB
:104040009A838983EA89FB8989819A819783868308
:10405000E981FA8186819781EA89FB899187808746
:10406000E981FA810680F781E02D8A899B89029691
:10407000958384838A899B890296E981FA81978353
:104080008683EA89FB89828D482F50E0CA01880F18
:10409000991F9C01220F331F220F331F820F931F82
:1040A000840F951F875B9A4EEA89FB8995878487E1
:1040B000EA89FB89828D482F50E0CA01880F991F39
:1040C0009C01220F331F220F331F820F931F840F77
:1040D000951FFC01E75BFA4E80818F5F8083EA8940
:1040E000FB89928DE0913215F0913315828D8917FD
:1040F00008F0C5CE81E08D87C2CEE0913215F091F7
:104100003315828D482F50E0CA01880F991F9C01FA
:10411000220F331F220F331F820F931F840F951F0F
:10412000FC01E75BFA4E8081823010F081E08D87E0
:1041300080913F158823B1F081E08D8713C0809175
:104140003B1590913C15A0913D15B0913E150196FF
:10415000A11DB11D80933B1590933C15A0933D1577
:10416000B0933E158D8563960FB6F894DEBF0FBEF3
:10417000CDBFCF91DF910895DF93CF9300D00F9201
:10418000CDB7DEB780914815882321F081E0809378
:104190003F1564C010923F15809139158B8308C07C
:1041A0008B81882311F4F894FFCF8B8181508B830E
:1041B0008B81482F50E0CA01880F991F9C01220F64
:1041C000331F220F331F820F931F840F951FFC0193
:1041D000E75BFA4E8081882319F38B81482F50E0EA
:1041E000CA01880F991F9C01220F331F220F331F12
:1041F000820F931F840F951F875B9A4E9A83898342
:10420000E981FA810180F281E02D84819581E98143
:10421000FA8192838183E981FA81218132818981C6
:104220009A8103962817390759F4E981FA810180A8
:10423000F281E02D84819581E981FA8192838183E5
:10424000E981FA810180F281E02D8085918590934A
:104250003315809332158B81809339150F900F9011
:104260000F90CF91DF910895DF93CF9300D000D0CE
:1042700000D0CDB7DEB79A8389834B835C836D838F
:104280007E8389819A81009711F4F894FFCF809101
:104290003215909133159C01225F3F4F89819A819D
:1042A000B9010E9450108B819C81AD81BE81BC01FF
:1042B000CD0141E00E944C2E26960FB6F894DEBF49
:1042C0000FBECDBFCF91DF9108950F931F93DF9362
:1042D000CF93CDB7DEB72C970FB6F894DEBF0FBEE5
:1042E000CDBF9C838B834D835E836F8378870987E3
:1042F0001A872B873C878B819C81009711F4F89457
:10430000FFCF80914815882311F4F894FFCFE091F6
:104310003215F09133158D819E81AF81B885B068DB
:1043200086879787A08BB18BEB81FC8181819281FD
:104330009A838983E0913215F091331589819A81AE
:10434000938B828BA0913215B0913315E981FA815C
:104350008681978155969C938E935497E981FA8133
:104360000680F781E02D80913215909133150E96DD
:104370009583848380913215909133150E96E9814F
:10438000FA8197838683E0913215F09133158B8102
:104390009C81918F808FEB81FC8180818F5FEB818D
:1043A000FC81808389859A85AB85BC85BC01CD0164
:1043B00041E00E944C2E2C960FB6F894DEBF0FBE43
:1043C000CDBFCF91DF911F910F910895DF93CF93D0
:1043D000CDB7DEB72D970FB6F894DEBF0FBECDBFB9
:1043E0009D878C87EC85FD850780F085E02D808595
:1043F00091859B878A878A859B85009711F4F8941D
:10440000FFCFEA85FB85808D918D98878F83EA8524
:10441000FB85A289B389EA85FB85848995891796EE
:104420009C938E931697EA85FB85A489B589EA85C6
:10443000FB858289938915969C938E931497EF81BF
:10444000F885218132818A859B850E962817390748
:1044500041F4EA85FB8584899589EF81F88592830B
:104460008183EA85FB85118E108EEF81F88580812E
:104470008150EF81F885808380914815882309F069
:10448000ADC0EA85FB85848595859E838D83EA850D
:10449000FB85A681B781EA85FB8580859185179686
:1044A0009C938E931697EA85FB85A085B185EA8556
:1044B000FB858681978115969C938E931497ED8149
:1044C000FE81218132818A859B85029628173907D2
:1044D00041F4EA85FB8580859185ED81FE8192839B
:1044E0008183EA85FB8515861486ED81FE818081B6
:1044F0008150ED81FE818083EA85FB85928D8091DC
:104500003915891728F4EA85FB85828D8093391542
:10451000EA85FB85828D482F50E0CA01880F991FDC
:104520009C01220F331F220F331F820F931F840F12
:10453000951FFC01E75BFA4E818192819C838B83FE
:10454000EA85FB858B819C8197838683EB81FC8147
:1045500086819781EA85FB8591878087EB81FC8145
:104560000680F781E02D8A859B850296958384835A
:104570008A859B850296EB81FC8197838683EA85F9
:10458000FB85828D482F50E0CA01880F991F9C013E
:10459000220F331F220F331F820F931F840F951F8B
:1045A000875B9A4EEA85FB8595878487EA85FB853C
:1045B000828D482F50E0CA01880F991F9C01220F5D
:1045C000331F220F331F820F931F840F951FFC018F
:1045D000E75BFA4E80818F5F808330C080919B15AE
:1045E00090919C159A838983EA85FB8589819A81BC
:1045F000938B828BE981FA8186819781EA85FB859D
:10460000958B848BE981FA810680F781E02D8A857C
:104610009B850E96958384838A859B850E96E9817A
:10462000FA8197838683EA85FB858AE995E1918FF4
:10463000808F80919A158F5F80939A15EA85FB850C
:10464000928DE0913215F0913315828D891730F4F7
:1046500081E0898781E080933F1501C019868985B3
:104660002D960FB6F894DEBF0FBECDBFCF91DF9170
:104670000895DF93CF93CDB7DEB72E970FB6F8949A
:10468000DEBF0FBECDBF9A8789874B875C876D875A
:104690007E8780914815882311F4F894FFCF8B858D
:1046A0009C85AD85BE85B068E985FA858083918358
:1046B000A283B383E985FA858085918598878F8366
:1046C0008F819885009711F4F894FFCFE985FA85DA
:1046D000828593859E838D83E985FA85A481B58142
:1046E000E985FA858681978117969C938E93169714
:1046F000E985FA85A681B781E985FA858481958166
:1047000015969C938E931497ED81FE8121813281C1
:1047100089859A852817390741F4E985FA858681C4
:104720009781ED81FE8192838183E985FA851386E5
:104730001286ED81FE8180818150ED81FE81808332
:10474000EF81F885848595859C838B83EF81F8853F
:10475000A681B781EF81F8858085918517969C9316
:104760008E931697EF81F885A085B185EF81F88546
:104770008681978115969C938E931497EB81FC818B
:10478000218132818F81988502962817390741F45B
:10479000EF81F88580859185EB81FC81928381830F
:1047A000EF81F88515861486EB81FC81808181502C
:1047B000EB81FC818083EF81F885928D80913915A2
:1047C000891728F4EF81F885828D80933915EF8160
:1047D000F885828D482F50E0CA01880F991F9C01EF
:1047E000220F331F220F331F820F931F840F951F39
:1047F000FC01E75BFA4E818192819A838983EF8184
:10480000F88589819A8197838683E981FA818681F7
:104810009781EF81F88591878087E981FA81068009
:10482000F781E02D8F8198850296958384838F810F
:1048300098850296E981FA8197838683EF81F885CE
:10484000828D482F50E0CA01880F991F9C01220FCA
:10485000331F220F331F820F931F840F951F875B17
:104860009A4EEF81F88595878487EF81F885828D50
:10487000482F50E0CA01880F991F9C01220F331F57
:10488000220F331F820F931F840F951FFC01E75BDC
:10489000FA4E80818F5F8083EF81F885928DE09161
:1048A0003215F0913315828D891718F481E08093C9
:1048B0003F152E960FB6F894DEBF0FBECDBFCF9139
:1048C000DF910895DF93CF9300D0CDB7DEB79A8301
:1048D000898389819A81009711F4F894FFCF0FB6EC
:1048E000F8940F9280914015E981FA81808380913C
:1048F000351590913615A0913715B0913815E9818D
:10490000FA8181839283A383B4830F900FBE0F90AB
:104910000F90CF91DF910895DF93CF9300D0CDB763
:10492000DEB79A83898380914015E981FA8180837B
:104930008091351590913615A0913715B0913815A5
:10494000E981FA8181839283A383B4830F900F90CE
:10495000CF91DF910895EF92FF920F931F93DF9312
:10496000CF93CDB7DEB72D970FB6F894DEBF0FBE4D
:10497000CDBF9B878A877D876C878A859B850097BB
:1049800011F4F894FFCF8C859D85009711F4F8946D
:10499000FFCF0FB6F8940F92809135159091361590
:1049A000A0913715B09138158D839E83AF83B8875A
:1049B000EA85FB8521813281438154818D819E81ED
:1049C000AF81B885821B930BA40BB50B89839A83A7
:1049D000AB83BC83EA85FB85908180914015981755
:1049E000C1F0EA85FB8521813281438154818D812B
:1049F0009E81AF81B88582179307A407B50748F059
:104A000081E08987EC85FD851082118212821382F4
:104A100035C0EC85FD8520813181428153818981BA
:104A20009A81AB81BC8182179307A407B507F0F484
:104A3000EC85FD85208131814281538189819A8174
:104A4000AB81BC8179018A01E81AF90A0A0B1B0BB8
:104A5000D801C701EC85FD8580839183A283B38350
:104A60008A859B850E948C24198608C0EC85FD856B
:104A7000108211821282138281E089870F900FBE0B
:104A800089852D960FB6F894DEBF0FBECDBFCF91AE
:104A9000DF911F910F91FF90EF900895DF93CF93D7
:104AA000CDB7DEB781E080933F15CF91DF910895B8
:104AB000DF93CF9300D0CDB7DEB79A8389830E946E
:104AC000A425809149158230D0F30E94E408F7CFE5
:104AD000DF93CF930F92CDB7DEB7198216C08981CD
:104AE000482F50E0CA01880F991F9C01220F331FE5
:104AF000220F331F820F931F840F951F875B9A4EDF
:104B00000E94CE0F89818F5F89838981853038F338
:104B100080E895E10E94CE0F8BE895E10E94CE0FD0
:104B20008AE995E10E94CE0F80E895E19093971570
:104B3000809396158BE895E190939915809398153D
:104B40000F90CF91DF910895DF93CF93CDB7DEB76C
:104B5000CF91DF910895DF93CF93CDB7DEB7E0918A
:104B60009615F09197158081882369F48FEF9FEF58
:104B7000AFEFBFEF8093421590934315A093441578
:104B8000B093451513C0E0919615F09197150780E5
:104B9000F085E02D80819181A281B38180934215BF
:104BA00090934315A0934415B0934515CF91DF9191
:104BB0000895DF93CF9300D0CDB7DEB78091321543
:104BC000909133159A83898389819A810F900F90F0
:104BD000CF91DF910895DF93CF9300D000D0CDB770
:104BE000DEB7E0913215F091331586859785A0895F
:104BF000B18989839A83AB83BC83609132157091AC
:104C00003315E0913215F0913315828D282F30E065
:104C100040E050E085E090E0A0E0B0E0821B930B24
:104C2000A40BB50BFB0186879787A08BB18B89817D
:104C30009A81AB81BC81BC01CD010F900F900F9088
:104C40000F90CF91DF910895DF93CF93CDB7DEB76B
:104C50002A970FB6F894DEBF0FBECDBF8D836E834B
:104C60002F83388749875A878D81882311F0F894DC
:104C7000FFCF0FB6F8940F92209132153091331573
:104C80008D81882F90E0880F991F880F991F820FC0
:104C9000931FFC01BD9680819181A281B381009711
:104CA000A105B10501F520913215309133158D81A3
:104CB000882F90E0820F931FFC01F19681E08083A2
:104CC0008F819885A985BA850097A105B10559F00E
:104CD0008F819885A985BA85BC01CD0141E00E94EC
:104CE0004C2E0E94E4080F900FBE0FB6F8940F925E
:104CF00020913215309133158D81882F90E0880FE7
:104D0000991F880F991F820F931FFC01BD96808108
:104D10009181A281B38189839A83AB83BC8389818A
:104D20009A81AB81BC810097A105B105A9F18E8163
:104D30008823A1F020913215309133158D81882F71
:104D400090E0880F991F880F991F820F931FFC0115
:104D5000BD9610821182128213821EC0E09132151C
:104D6000F09133158D81682F70E089819A81AB8134
:104D7000BC819C01AD012150304040405040CB01EE
:104D8000880F991F880F991F8E0F9F1FFC01BD96DA
:104D90002083318342835383209132153091331520
:104DA0008D81882F90E0820F931FFC01F196108275
:104DB0000F900FBE89819A81AB81BC81BC01CD016E
:104DC0002A960FB6F894DEBF0FBECDBFCF91DF910C
:104DD0000895AF92BF92CF92DF92EF92FF920F931E
:104DE0001F93DF93CF93CDB7DEB760970FB6F894DC
:104DF000DEBF0FBECDBF8A834B835C836D837E8312
:104E00000F83188729873A87FC86EB86AD86BE8696
:104E1000CF86D88A8A81882311F0F894FFCF0FB605
:104E2000F8940F9220913215309133158A81882F92
:104E300090E0820F931FFC01F1968081823009F48B
:104E40004FC060913215709133158A81082F10E0A0
:104E50008A81882F90E0880F991F880F991F860FED
:104E6000971FFC01BD9620813181428153818B8146
:104E70009C81AD81BE8180959095A095B0952823A9
:104E800039234A235B23C801880F991F880F991F74
:104E9000860F971FFC01BD96208331834283538385
:104EA00020913215309133158A81882F90E0820F3E
:104EB000931FFC01F19681E080838D859E85AF85EF
:104EC000B8890097A105B10559F08D859E85AF85FC
:104ED000B889BC01CD0141E00E944C2E0E94E4083B
:104EE0000F900FBE0FB6F8940F928B859C8500979C
:104EF000C9F020913215309133158A81882F90E0C6
:104F0000880F991F880F991F820F931FFC01BD9670
:104F100080819181A281B381EB85FC85808391831F
:104F2000A283B38320913215309133158A81882F63
:104F300090E0820F931FFC01F1968081823011F086
:104F4000198231C060913215709133158A81082F12
:104F500010E08A81882F90E0880F991F880F991F91
:104F6000860F971FFC01BD962081318142815381BC
:104F70008F819885A985BA8580959095A095B095E3
:104F8000282339234A235B23C801880F991F880FE0
:104F9000991F860F971FFC01BD96208331834283A2
:104FA000538381E0898320913215309133158A81B2
:104FB000882F90E0820F931FFC01F19610820F90D2
:104FC0000FBE898160960FB6F894DEBF0FBECDBFCD
:104FD000CF91DF911F910F91FF90EF90DF90CF90D5
:104FE000BF90AF900895EF92FF920F931F93DF93BE
:104FF000CF93CDB7DEB764970FB6F894DEBF0FBE80
:10500000CDBF9A8789876B872C873D874E875F87BF
:10501000088BFA8AE98A81E08E838B85882311F0D8
:10502000F894FFCF89859A85009711F4F894FFCF03
:1050300089859A8598878F830FB6F8940F9289890E
:105040009A890097B9F08B85882F90E02F81388559
:10505000880F991F880F991F820F931FFC01BD961F
:1050600080819181A281B381E989FA8980839183CA
:10507000A283B3838B85282F30E08F819885820FA0
:10508000931FFC01F19680818D838B85282F30E062
:105090008F819885820F931FFC01F19682E08083B7
:1050A0008889282F30E03C8B2B8B8B899C89823020
:1050B000910509F44BC02B893C89233031055CF400
:1050C0008B899C89009709F4A8C02B893C892130E1
:1050D000310571F094C08B899C898330910509F466
:1050E0005DC02B893C892430310509F46DC087C02F
:1050F0008B85082F10E08B85882F90E02F813885D5
:10510000880F991F880F991F820F931FFC01BD966E
:1051100020813181428153818C859D85AE85BF85FB
:10512000BA01A901482B592B6A2B7B2B2F8138857B
:10513000C801880F991F880F991F820F931FFC01C8
:10514000BD96408351836283738367C08B85082F2C
:1051500010E02F813885C801880F991F880F991F8B
:10516000820F931FFC01BD9680819181A281B38142
:10517000AC01BD014F5F5F4F6F4F7F4F2F8138856F
:10518000C801880F991F880F991F820F931FFC0178
:10519000BD9640835183628373833FC08B85882F84
:1051A00090E02F813885880F991F880F991F820FF3
:1051B000931FFC01BD968C859D85AE85BF85808340
:1051C0009183A283B38329C08D818230B1F08B8516
:1051D000882F90E02F813885880F991F880F991F9D
:1051E000820F931FFC01BD968C859D85AE85BF8582
:1051F00080839183A283B38310C01E820EC08091EE
:10520000351590913615A0913715B0913815009746
:10521000A105B10511F0F894FFCF8D81813009F01F
:10522000C0C0EF81F885848595859C838B83EF8151
:10523000F885A681B781EF81F885808591851796DD
:105240009C938E931697EF81F885A085B185EF81A9
:10525000F8858681978115969C938E931497EB81A0
:10526000FC81218132818F81988502962817390728
:1052700041F4EF81F88580859185EB81FC819283F3
:105280008183EF81F88515861486EB81FC8180810E
:105290008150EB81FC818083EF81F885928D809134
:1052A0003915891728F4EF81F885828D8093391597
:1052B000EF81F885828D482F50E0CA01880F991F31
:1052C0009C01220F331F220F331F820F931F840F65
:1052D000951FFC01E75BFA4E818192819A83898355
:1052E000EF81F88589819A8197838683E981FA81A4
:1052F00086819781EF81F88591878087E981FA819E
:105300000680F781E02D8F819885029695838483AE
:105310008F8198850296E981FA8197838683EF8150
:10532000F885828D482F50E0CA01880F991F9C0193
:10533000220F331F220F331F820F931F840F951FDD
:10534000875B9A4EEF81F88595878487EF81F88592
:10535000828D482F50E0CA01880F991F9C01220FAF
:10536000331F220F331F820F931F840F951FFC01E1
:10537000E75BFA4E80818F5F8083EF81F885808DB7
:10538000918D009711F0F894FFCFEF81F885928D01
:10539000E0913215F0913315828D891710F40E9437
:1053A000E4080F900FBE8E8164960FB6F894DEBFAE
:1053B0000FBECDBFCF91DF911F910F91FF90EF9066
:1053C0000895CF92DF92EF92FF920F931F93DF9396
:1053D000CF93CDB7DEB769970FB6F894DEBF0FBE97
:1053E000CDBF9D878C876E872F87388B498B5A8BD3
:1053F0000B8BFD8AEC8ADF8ACE8A81E088878C85D8
:105400009D85009711F4F894FFCF8E85882311F0C5
:10541000F894FFCF8C859D859B878A871F828C8916
:105420009D890097B9F08E85882F90E02A853B856D
:10543000880F991F880F991F820F931FFC01BD963B
:1054400080819181A281B381EC89FD8980839183E0
:10545000A283B3838E85282F30E08A859B85820FB7
:10546000931FFC01F196808189878E85282F30E07B
:105470008A859B85820F931FFC01F19682E08083D1
:105480008B89282F30E0398F288F888D998D823035
:10549000910509F44BC0288D398D233031055CF41A
:1054A000888D998D009709F4A8C0288D398D2130F9
:1054B000310571F094C0888D998D8330910509F480
:1054C0005DC0288D398D2430310509F46DC087C049
:1054D0008E85082F10E08E85882F90E02A853B85E9
:1054E000880F991F880F991F820F931FFC01BD968B
:1054F00020813181428153818F859889A989BA8918
:10550000BA01A901482B592B6A2B7B2B2A853B8595
:10551000C801880F991F880F991F820F931FFC01E4
:10552000BD96408351836283738367C08E85082F45
:1055300010E02A853B85C801880F991F880F991FA5
:10554000820F931FFC01BD9680819181A281B3815E
:10555000AC01BD014F5F5F4F6F4F7F4F2A853B8589
:10556000C801880F991F880F991F820F931FFC0194
:10557000BD9640835183628373833FC08E85882F9D
:1055800090E02A853B85880F991F880F991F820F0D
:10559000931FFC01BD968F859889A989BA8980835C
:1055A0009183A283B38329C089858230B1F08E852F
:1055B000882F90E02A853B85880F991F880F991FB7
:1055C000820F931FFC01BD968F859889A989BA899E
:1055D00080839183A283B38310C018860EC080910C
:1055E000351590913615A0913715B0913815009763
:1055F000A105B10511F0F894FFCF8985813009F03C
:10560000FFC0EA85FB85808D918D009711F0F8949D
:10561000FFCF80914815882309F0ADC0EA85FB854E
:10562000848595859E838D83EA85FB85A681B781D8
:10563000EA85FB858085918517969C938E931697B6
:10564000EA85FB85A085B185EA85FB858681978102
:1056500015969C938E931497ED81FE812181328162
:105660008A859B8502962817390741F4EA85FB85D0
:1056700080859185ED81FE8192838183EA85FB851A
:1056800015861486ED81FE8180818150ED81FE8139
:105690008083EA85FB85928D80913915891728F4DE
:1056A000EA85FB85828D80933915EA85FB85828D9D
:1056B000482F50E0CA01880F991F9C01220F331F09
:1056C000220F331F820F931F840F951FFC01E75B8E
:1056D000FA4E818192819C838B83EA85FB858B8145
:1056E0009C8197838683EB81FC8186819781EA8503
:1056F000FB8591878087EB81FC810680F781E02D17
:105700008A859B850296958384838A859B850296EC
:10571000EB81FC8197838683EA85FB85828D482F08
:1057200050E0CA01880F991F9C01220F331F220FDE
:10573000331F820F931F840F951F875B9A4EEA8554
:10574000FB8595878487EA85FB85828D482F50E00D
:10575000CA01880F991F9C01220F331F220F331F8C
:10576000820F931F840F951FFC01E75BFA4E808127
:105770008F5F808330C080919B1590919C159A8398
:105780008983EA85FB8589819A81938B828BE98164
:10579000FA8186819781EA85FB85958B848BE981E7
:1057A000FA810680F781E02D8A859B850E96958388
:1057B00084838A859B850E96E981FA819783868307
:1057C000EA85FB858AE995E1918F808F80919A1512
:1057D0008F5F80939A15EA85FB85928DE091321553
:1057E000F0913315828D891758F48E899F8900971F
:1057F00021F0EE89FF8981E0808381E080933F156D
:10580000888569960FB6F894DEBF0FBECDBFCF91E5
:10581000DF911F910F91FF90EF90DF90CF9008954F
:105820000F931F93DF93CF93CDB7DEB72F970FB6AC
:10583000F894DEBF0FBECDBF9C878B876D875F87D7
:105840004E878B859C85009711F4F894FFCF8D854A
:10585000882311F0F894FFCF8B859C859A878987E0
:105860001F828D85282F30E089859A85820F931FAE
:10587000FC01F196808188878D85282F30E089850D
:105880009A85820F931FFC01F19682E080838D85BB
:10589000082F10E029853A85C801880F991F880FC5
:1058A000991F820F931FFC01BD9680819181A28177
:1058B000B381AC01BD014F5F5F4F6F4F7F4F2985B3
:1058C0003A85C801880F991F880F991F820F931F6F
:1058D000FC01BD9640835183628373838885813048
:1058E00009F0FFC0E985FA85808D918D009711F050
:1058F000F894FFCF80914815882309F0ADC0E98561
:10590000FA85848595859E838D83E985FA85A681B0
:10591000B781E985FA858085918517969C938E934A
:105920001697E985FA85A085B185E985FA8586818E
:10593000978115969C938E931497ED81FE8121811A
:10594000328189859A8502962817390741F4E985BD
:10595000FA8580859185ED81FE8192838183E98539
:10596000FA8515861486ED81FE8180818150ED8156
:10597000FE818083E985FA85928D8091391589179A
:1059800028F4E985FA85828D80933915E985FA85B1
:10599000828D482F50E0CA01880F991F9C01220F69
:1059A000331F220F331F820F931F840F951FFC019B
:1059B000E75BFA4E818192819C838B83E985FA852E
:1059C0008B819C8197838683EB81FC818681978183
:1059D000E985FA8591878087EB81FC810680F781D4
:1059E000E02D89859A8502969583848389859A8599
:1059F0000296EB81FC8197838683E985FA85828D07
:105A0000482F50E0CA01880F991F9C01220F331FB5
:105A1000220F331F820F931F840F951F875B9A4EAF
:105A2000E985FA8595878487E985FA85828D482FEF
:105A300050E0CA01880F991F9C01220F331F220FCB
:105A4000331F820F931F840F951FFC01E75BFA4EF3
:105A500080818F5F808330C080919B1590919C15D1
:105A60009A838983E985FA8589819A81938B828BD0
:105A7000E981FA8186819781E985FA85958B848B06
:105A8000E981FA810680F781E02D89859A850E9655
:105A90009583848389859A850E96E981FA81978317
:105AA0008683E985FA858AE995E1918F808F8091D7
:105AB0009A158F5F80939A15E985FA85928DE0910A
:105AC0003215F0913315828D891758F48E859F8594
:105AD000009721F0EE85FF8581E0808381E080934F
